:020000040000FA
:08000000803102288731E42F52
:1009C6003C343C34A434603031008D000630930052
:1009D600080085313525843123001B140800853134
:1009E6003525843123001B150800803023008F0035
:1009F600303090002E000F100800283023009A0097
:100A06009B014F309700191399170800000000004A
:100A16000000000000000000000000000800F100D7
:100A26008531352585317108230096001B081B2D5D
:100A360008006400800101310130FE020030FF3BF6
:100A46007F087E04031D1D2D0034083022009F0000
:100A560024309E0090309D0044309B009C012E0067
:100A66008F120800372D372D2300190C890C0139F8
:100A7600F0001B081F397004031D422D432D372D2E
:100A8600442D0800F000472D2E000F1A4B2D4C2D3B
:100A9600532D22009E1C502D512D472D532D532D85
:100AA600700822009A0008008431EC2485312A302F
:100AB6008531122585310130853112258531053084
:100AC6008531122585310030853112258531013079
:100AD6008531122585318431F22485310800780864
:100AE60079040319772D782DA72DFD01FD0A852D93
:100AF6000130F835F90D890B7C2D0130FC007C089E
:100B0600FD07852DF91F882D892D7B2D8B2D8B2D8E
:100B160079087B02031D912D78087A02031C942D17
:100B2600952D9A2D7808FA027908FB3B9A2D01300B
:100B3600F936F80C890B9B2D0130FD02031DA42DFF
:100B4600A52D8B2DA72DA72D7B08F9007A08F80077
:100B5600AC2D0800F501F601700871040319B42DD7
:100B6600B52DEA2DF701F70AC22D0130F035F10D4A
:100B7600890BB92D0130F4007408F707C22DF11F57
:100B8600C52DC62DB82DC82DC82D0130F535F60D4D
:100B9600890BC92D71087302031DD32D70087202CB
:100BA600031CD62DD72DDD2D7008F2027108F33BFC
:100BB6007514DD2D0130F136F00C890BDE2D013078
:100BC600F702031DE72DE82DC82DEA2DEA2D76083C
:100BD600F1007508F000EF2D08003E00B801C301D2
:100BE600CE01D901E40120009101653092009830D0
:100BF6009300940195018C018D018E018F01900166
:100C060096019701980199019A012E0099120B13EA
:100C16008B13161255303D008F00AA308F000F102F
:100C260010303E00A60017303D00CB000E30C60047
:100C360014303E009F001530A10014303D00C9005D
:100C460016303E00A3001730A40055303D008F003B
:100C5600AA308F000F142E0099160B178B178F01D1
:100C660008002000B901F201F3010E104D2E2300F9
:100C76008C018531092586312E000F104C308600F7
:100C86002330870023000C08C03F0130F2070030F4
:100C9600F33D4D2E7308803AF00080307002031D3C
:100CA600562EA4307202031C592E5A2E3A2E2000BC
:100CB6000E144C308600233087000F300105F000FB
:100CC6000F307006031D682E692E722EB901B90AFF
:100CD6000130F0007008B807B501B503812EB801E0
:100CE6000130F0007008B5073508803A443E031C11
:100CF6007D2E7E2E812EB501812E812E97303802D3
:100D0600031C862E872E962E5230F1002B30F000D3
:100D16000030890B8C2EF00B8C2EF10B8C2E0032B2
:100D26002000B801962E08008431E62486318531EC
:100D3600F025863185310025863185312825863195
:100D46008431F824863185315725863120000F15E8
:100D56000F140E148F148F1529302000B30096300F
:100D6600B2007F30890BB52EB20BB52EB30BB52E64
:100D76000A302000A0008830A10087310A2786317A
:100D860020000E100E1452302000B3002B30B2009B
:100D96000030890BCC2EB20BCC2EB30BCC2E000020
:100DA6002000B401F92EB501B503D92E86313426BB
:100DB600863120003508803A453E031CE32EE42E9A
:100DC600D92EE52E1230A0008830A1003408B200DA
:100DD600B3013208A2003308A30087310A278631FF
:100DE60001302000B2003208B407F92E3C3034023C
:100DF600031CFE2EFF2ED62E002F1630A0008830A4
:100E0600A10087310A278631072F80310228223038
:100E16002000A4002408A800CC2F25302D06031995
:100E2600152F162F1B2F2D08853145258731CC2FE1
:100E36002000A901232FE32F3A2F3A2FCC2F3A2F48
:100E46002108A5002008A400A00A0319A10A240865
:100E56008400250885000008AD00003A0319E32F39
:100E6600643A03193A2F0D3A03193A2FCC2F280862
:100E760086008701403FAB00413FAC000230A40032
:100E86002408A807AC1F482F492F532F0330A4006E
:100E96002408A904AB09AC09AB0A0319AC0A532F01
:100EA600AD01AD0A05302D06031D5A2F5B2F5D2FB0
:100EB600832F832F2D08A400A501A435A50D00308E
:100EC600240784008830253D8500003FA600013FA9
:100ED600A70027082C02031D722F26082B020318D1
:100EE600752F762F782F832F832F0130A4002408A7
:100EF600AD0705302D06031D812F822F5D2F832F11
:100F0600290803390319882F892F8E2F2D30853113
:100F1600452587318E2F20002D08A4002408AA001D
:100F2600C02F0A30F8000030F9002A08A400A501F5
:100F3600A435A50D0030240784008830253D8500A2
:100F4600003FF000013FF1002C08F3002B08F200EF
:100F56008531AD2587317108FB007008FA008531AF
:100F6600722587317808303E2000A6002608AD009D
:100F76002D08853145258731C02FFF302000A4007C
:100F86002408AA072A0A031DC92FCA2F942FCC2F7B
:100F9600CC2F20002108A5002008A400A00A0319D0
:100FA600A10A24088400250885000008A600260852
:100FB600AD002D08031DE02FE12F102FE32FE32FA7
:100FC60008008431E3248731B5008431E424873175
:100FD600B6008431E5248731B7004C3084002330D5
:100FE6008500A430FE000030FF0085311C258731C6
:100FF600B801B90120008631972E013400340A3435
:10100600003464340034E83403341034273448346C
:1010160045344C344C344F340D340A3400342534C2
:0C1026006434203400340A340D340034EB
:020000040001F9
:0A000E00EC3FFF379F3FFF3FFF3F2D
:00000001FF
