:020000040000FA
:08000000803102288731E42F52
:10000A00F00007282E000F1A0B280C2813282200AC
:10001A009E1C10281128072813281328700822006C
:10002A009A0008003E00B801C301CE01D901E401DB
:10003A002000910165309200983093009401950157
:10004A008C018D018E018F01900196019701980113
:10005A0099019A012E0099120B138B13161255301F
:10006A003D008F00AA308F000F1010303E00A6000E
:10007A0017303D00CB000E30C60014303E009F0002
:10008A001530A10014303D00C90016303E00A3000F
:10009A001730A40055303D008F00AA308F000F148E
:1000AA002E0099160B178B178F0108002E000F10C0
:1000BA00603086002330870023000C0881008C0101
:1000CA008C31CE2480312E000F106130860023300F
:1000DA00870023000C0881008C018C31CE248031EA
:1000EA002E000F10623086002330870023000C0890
:1000FA0081008C018C31CE2480312E000F106330A8
:10010A0086002330870023000C0881008C018C3183
:10011A00CE2480312E000F106430860023308700F1
:10012A0023000C0881008C018C31CE2480312E00F2
:10013A000F10653086002330870023000C088100E9
:10014A008C018C31CE2480312E000F10663086004F
:10015A002330870023000C0881008C018C31CE24C7
:10016A0080312E000F10673086002330870023006D
:10017A000C0881008C018C31CE2480312E000F10A6
:10018A00683086002330870023000C0881008C0128
:10019A008C31CE2480312E000F1069308600233036
:1001AA00870023000C0881008C018C31CE24803119
:1001BA002E000F106A3086002330870023000C08B7
:1001CA0081008C018C31CE2480312E000F106B30CF
:1001DA0086002330870023000C0881008C018C31B3
:1001EA00CE2480312E000F106C3086002330870019
:1001FA0023000C0881008C018C31CE2480312E0022
:10020A000F106D3086002330870023000C08810010
:10021A008C018C31CE2480312E000F106E30860076
:10022A002330870023000C0881008C018C31CE24F6
:10023A0080312E000F106F30860023308700230094
:10024A000C0881008C018C31CE2480312E000F10D5
:10025A00703086002330870023000C0881008C014F
:10026A008C31CE2480312E000F107130860023305D
:10027A00870023000C0881008C018C31CE24803148
:10028A002E000F10723086002330870023000C08DE
:10029A0081008C018C31CE2480312E000F107330F6
:1002AA0086002330870023000C0881008C018C31E2
:1002BA00CE2480312E000F10743086002330870040
:1002CA0023000C0881008C018C31CE2480312E0051
:1002DA000F10753086002330870023000C08810038
:1002EA008C018C31CE2480312E000F10763086009E
:1002FA002330870023000C0881008C018C31CE2426
:10030A0080312E000F1077308600233087002300BB
:10031A000C0881008C018C31CE2480312E000F1004
:10032A00783086002330870023000C0881008C0176
:10033A008C31CE2480312E000F1079308600233084
:10034A00870023000C0881008C018C31CE24803177
:10035A002E000F107A3086002330870023000C0805
:10036A0081008C018C31CE2480312E000F107B301D
:10037A0086002330870023000C0881008C018C3111
:10038A00CE2480312E000F107C3086002330870067
:10039A0023000C0881008C018C31CE2480312E0080
:1003AA000F107D3086002330870023000C0881005F
:1003BA008C018C31CE2480312E000F107E308600C5
:1003CA002330870023000C0881008C018C31CE2455
:1003DA0080312E000F107F308600233087002300E3
:1003EA000C0881008C018C31CE2480312E000F1034
:1003FA00803086002330870023000C0881008C019E
:10040A008C31CE2480312E000F10813086002330AB
:10041A00870023000C0881008C018C31CE248031A6
:10042A002E000F10823086002330870023000C082C
:10043A0081008C018C31CE2480312E000F10833044
:10044A0086002330870023000C0881008C018C3140
:10045A00CE2480312E000F1084308600233087008E
:10046A0023000C0881008C018C31CE2480312E00AF
:10047A000F10853086002330870023000C08810086
:10048A008C018C31CE2480312E000F1086308600EC
:10049A002330870023000C0881008C018C31CE2484
:1004AA0080312E000F10873086002330870023000A
:1004BA000C0881008C018C31CE2480312E000F1063
:1004CA00883086002330870023000C0881008C01C5
:1004DA008C31CE2480312E000F10893086002330D3
:1004EA00870023000C0881008C018C31CE248031D6
:1004FA002E000F108A3086002330870023000C0854
:10050A0081008C018C31CE2480312E000F108B306B
:10051A0086002330870023000C0881008C018C316F
:10052A00CE2480312E000F108C30860023308700B5
:10053A0023000C0881008C018C31CE2480312E00DE
:10054A000F108D3086002330870023000C088100AD
:10055A008C018C31CE2480312E000F108E30860013
:10056A002330870023000C0881008C018C31CE24B3
:10057A0080312E000F108F30860023308700230031
:10058A000C0881008C018C31CE2480312E000F1092
:10059A00903086002330870023000C0881008C01EC
:1005AA008C31CE2480312E000F10913086002330FA
:1005BA00870023000C0881008C018C31CE24803105
:1005CA002E000F10923086002330870023000C087B
:1005DA0081008C018C31CE2480312E000F10933093
:1005EA0086002330870023000C0881008C018C319F
:1005FA00CE2480312E000F109430860023308700DD
:10060A0023000C0881008C018C31CE2480312E000D
:10061A000F10953086002330870023000C088100D4
:10062A008C018C31CE2480312E000F10963086003A
:10063A002330870023000C0881008C018C31CE24E2
:10064A0080312E000F109730860023308700230058
:10065A000C0881008C018C31CE2480312E000F10C1
:10066A00983086002330870023000C0881008C0113
:10067A008C31CE2480312E000F1099308600233021
:10068A00870023000C0881008C018C31CE24803134
:10069A002E000F109A3086002330870023000C08A2
:1006AA0081008C018C31CE2480312E000F109B30BA
:1006BA0086002330870023000C0881008C018C31CE
:1006CA00CE2480312E000F109C3086002330870004
:1006DA0023000C0881008C018C31CE2480312E003D
:1006EA000F109D3086002330870023000C088100FC
:1006FA008C018C31CE2480312E000F109E30860062
:10070A002330870023000C0881008C018C31CE2411
:10071A0080312E000F109F3086002330870023007F
:10072A000C0881008C018C31CE2480312E000F10F0
:10073A00A03086002330870023000C0881008C013A
:10074A008C31CE2480312E000F10A1308600233048
:10075A00870023000C0881008C018C31CE24803163
:10076A002E000F10A23086002330870023000C08C9
:10077A0081008C018C31CE2480312E000F10A330E1
:10078A0086002330870023000C0881008C018C31FD
:10079A00CE2480312E000F10A4308600233087002B
:1007AA0023000C0881008C018C31CE2480312E006C
:1007BA000F10A53086002330870023000C08810023
:1007CA008C018C31CE2480312E000F10A630860089
:1007DA002330870023000C0881008C018C31CE2441
:1007EA0080312E000F10A7308600233087002300A7
:1007FA000C0881008C018C31CE2480312E000F1020
:10080A00A83086002330870023000C0881008C0161
:10081A008C31CE2480312E000F10A930860023306F
:10082A00870023000C0881008C018C31CE24803192
:10083A002E000F10AA3086002330870023000C08F0
:10084A0081008C018C31CE2480312E000F10AB3008
:10085A0086002330870023000C0881008C018C312C
:10086A00CE2480312E000F10AC3086002330870052
:10087A0023000C0881008C018C31CE2480312E009B
:10088A000F10AD3086002330870023000C0881004A
:10089A008C018C31CE2480312E000F10AE308600B0
:1008AA002330870023000C0881008C018C31CE2470
:1008BA0080312E000F10AF308600233087002300CE
:1008CA000C0881008C018C31CE2480312E000F104F
:1008DA00B03086002330870023000C0881008C0189
:1008EA008C31CE2480312E000F10B1308600233097
:1008FA00870023000C0881008C018C31CE248031C2
:10090A002E000F10B23086002330870023000C0817
:10091A0081008C018C31CE2480312E000F10B3302F
:10092A0086002330870023000C0881008C018C315B
:10093A00CE2480312E000F10B43086002330870079
:10094A0023000C0881008C018C31CE2480312E00CA
:10095A000F10B53086002330870023000C08810071
:10096A008C018C31CE2480312E000F10B6308600D7
:10097A002330870023000C0881008C018C31CE249F
:10098A0080312E000F10B7308600233087002300F5
:10099A000C0881008C018C31CE2480312E000F107E
:1009AA00B83086002330870023000C0881008C01B0
:1009BA008C31CE2480312E000F10B93086002330BE
:1009CA00870023000C0881008C018C31CE248031F1
:1009DA002E000F10BA3086002330870023000C083F
:1009EA0081008C018C31CE2480312E000F10BB3057
:1009FA0086002330870023000C0881008C018C318B
:100A0A00CE2480312E000F10BC30860023308700A0
:100A1A0023000C0881008C018C31CE2480312E00F9
:100A2A000F10BD3086002330870023000C08810098
:100A3A008C018C31CE2480312E000F10BE308600FE
:100A4A002330870023000C0881008C018C31CE24CE
:100A5A0080312E000F10BF3086002330870023001C
:100A6A000C0881008C018C31CE2480312E000F10AD
:100A7A00C03086002330870023000C0881008C01D7
:100A8A008C31CE2480312E000F10C13086002330E5
:100A9A00870023000C0881008C018C31CE24803120
:100AAA002E000F10C23086002330870023000C0866
:100ABA0081008C018C31CE2480312E000F10C3307E
:100ACA0086002330870023000C0881008C018C31BA
:100ADA00CE2480312E000F10C430860023308700C8
:100AEA0023000C0881008C018C31CE2480312E0029
:100AFA000F10C53086002330870023000C088100C0
:100B0A008C018C31CE2480312E000F10C630860025
:100B1A002330870023000C0881008C018C31CE24FD
:100B2A0080312E000F10C730860023308700230043
:100B3A000C0881008C018C31CE2480312E000F10DC
:100B4A00C83086002330870023000C0881008C01FE
:100B5A008C31CE2480312E000F10C930860023300C
:100B6A00870023000C0881008C018C31CE2480314F
:100B7A002E000F10CA3086002330870023000C088D
:100B8A0081008C018C31CE2480312E000F10CB30A5
:100B9A0086002330870023000C0881008C018C31E9
:100BAA00CE2480312E000F10CC30860023308700EF
:100BBA0023000C0881008C018C31CE2480312E0058
:100BCA000F10CD3086002330870023000C088100E7
:100BDA008C018C31CE2480312E000F10CE3086004D
:100BEA002330870023000C0881008C018C31CE242D
:100BFA0080312E000F10CF3086002330870023006B
:100C0A000C0881008C018C31CE2480312E000F100B
:100C1A00D03086002330870023000C0881008C0125
:100C2A008C31CE2480312E000F10D1308600233033
:100C3A00870023000C0881008C018C31CE2480317E
:100C4A002E000F10D23086002330870023000C08B4
:100C5A0081008C018C31CE2480312E000F10D330CC
:100C6A0086002330870023000C0881008C018C3118
:100C7A00CE2480312E000F10D43086002330870016
:100C8A0023000C0881008C018C31CE2480312E0087
:100C9A000F10D53086002330870023000C0881000E
:100CAA008C018C31CE2480312E000F10D630860074
:100CBA002330870023000C0881008C018C31CE245C
:100CCA0080312E000F10D730860023308700230092
:100CDA000C0881008C018C31CE2480312E000F103B
:100CEA00D83086002330870023000C0881008C014D
:100CFA008C31CE2480312E000F10D930860023305B
:100D0A00870023000C0881008C018C31CE248031AD
:100D1A002E000F10DA3086002330870023000C08DB
:100D2A0081008C018C31CE2480312E000F10DB30F3
:100D3A0086002330870023000C0881008C018C3147
:100D4A00CE2480312E000F10DC308600233087003D
:100D5A0023000C0881008C018C31CE2480312E00B6
:100D6A000F10DD3086002330870023000C08810035
:100D7A008C018C31CE2480312E000F10DE3086009B
:100D8A002330870023000C0881008C018C31CE248B
:100D9A0080312E000F10DF308600233087002300B9
:100DAA000C0881008C018C31CE2480312E000F106A
:100DBA00E03086002330870023000C0881008C0174
:100DCA008C31CE2480312E000F10E1308600233082
:100DDA00870023000C0881008C018C31CE248031DD
:100DEA002E000F10E23086002330870023000C0803
:100DFA0081008C018C31CE2480312E000F10E3301B
:100E0A0086002330870023000C0881008C018C3176
:100E1A00CE2480312E000F10E43086002330870064
:100E2A0023000C0881008C018C31CE2480312E00E5
:100E3A000F10E53086002330870023000C0881005C
:100E4A008C018C31CE2480312E000F10E6308600C2
:100E5A002330870023000C0881008C018C31CE24BA
:100E6A0080312E000F10E7308600233087002300E0
:100E7A000C0881008C018C31CE2480312E000F1099
:100E8A00E83086002330870023000C0881008C019B
:100E9A008C31CE2480312E000F10E93086002330A9
:100EAA00870023000C0881008C018C31CE2480310C
:100EBA002E000F10EA3086002330870023000C082A
:100ECA0081008C018C31CE2480312E000F10EB3042
:100EDA0086002330870023000C0881008C018C31A6
:100EEA00CE2480312E000F10EC308600233087008C
:100EFA0023000C0881008C018C31CE2480312E0015
:100F0A000F10ED3086002330870023000C08810083
:100F1A008C018C31CE2480312E000F10EE308600E9
:100F2A002330870023000C0881008C018C31CE24E9
:100F3A0080312E000F10EF30860023308700230007
:100F4A000C08810020000E144C30860023308700E4
:100F5A000F300105F0000F307006031DB52FB62FB4
:100F6A00BF2FB901B90A0130F0007008B807B501FE
:100F7A00B503CE2FB8010130F0007008B507350867
:100F8A00803A443E031CCA2FCB2FCE2FB501CE2F59
:100F9A00CE2F97303802031CD32FD42FE32F523091
:100FAA00F1002B30F0000030890BD92FF00BD92F2C
:100FBA00F10BD92F00322000B801E32F08008C3141
:100FCA00A8248731B5008C31A9248731B6008C3129
:100FDA00AA248731B7004C30840023308500A4301E
:100FEA00FE000030FF008C31E1248731B801B901DD
:060FFA0020008D31A32D43
:101950003C343C34A434603031008D0006309300B8
:1019600008008C31FA248C3123001B1408008C31C0
:10197000FA248C3123001B150800803023008F00CF
:10198000303090002E000F100800283023009A00FD
:101990009B014F30970019139917080000000000B1
:1019A0000000000000000000000000000800F1003E
:1019B0008C31FA248C317108230096001B08E02C2E
:1019C00008006400800101310130FE020030FF3B5D
:1019D0007F087E04031DE22C0034083022009F00A3
:1019E00024309E0090309D0044309B009C012E00CE
:1019F0008F120800FC2CFC2C2300190C890C0139D7
:101A0000F0001B081F397004031D072D082DFC2C46
:101A1000092D08008C31B1248D312A308C31D72426
:101A20008D3101308C31D7248D3105308C31D72464
:101A30008D3100308C31D7248D3101308C31D72459
:101A40008D318C31B7248D31080078087904031961
:101A50002A2D2B2D5A2DFD01FD0A382D0130F83588
:101A6000F90D890B2F2D0130FC007C08FD07382D66
:101A7000F91F3B2D3C2D2E2D3E2D3E2D79087B024E
:101A8000031D442D78087A02031C472D482D4D2D47
:101A90007808FA027908FB3B4D2D0130F936F80C35
:101AA000890B4E2D0130FD02031D572D582D3E2D63
:101AB0005A2D5A2D7B08F9007A08F8005F2D08008E
:101AC000F501F601700871040319672D682D9D2D2D
:101AD000F701F70A752D0130F035F10D890B6C2DEA
:101AE0000130F4007408F707752DF11F782D792D5A
:101AF0006B2D7B2D7B2D0130F535F60D890B7C2D63
:101B000071087302031D862D70087202031C892D53
:101B10008A2D902D7008F2027108F33B7514902DF8
:101B20000130F136F00C890B912D0130F702031DC5
:101B30009A2D9B2D7B2D9D2D9D2D7608F1007508EE
:101B4000F000A22D08008C31AB248D31803117209C
:101B50008D318C31C5248D318C31ED248D318C311A
:101B6000BD248D318D310A258D3120000F150F14C4
:101B70000E148F148F1529302000B3009630B20058
:101B80007F30890BC12DB20BC12DB30BC12D0A3093
:101B90002000A0009030A1008F3126278D31200039
:101BA0000E100E1452302000B3002B30B200003063
:101BB000890BD82DB20BD82DB30BD82D00002000E7
:101BC000B401052EB501B503E52D8E319A268D3170
:101BD00020003508803A453E031CEF2DF02DE52D01
:101BE000F12D1230A0009030A1003408B200B301F2
:101BF0003208A2003308A3008F3126278D3101302F
:101C00002000B2003208B407052E3C303402031C19
:101C10000A2E0B2EE22D0C2E1630A0009030A100C3
:101C20008F3126278D31132E803102282E000F1080
:101C3000563086002330870023000C0881008C0179
:101C40008C31CE248E312E000F1057308600233079
:101C5000870023000C0881008C018C31CE248E314A
:101C60002E000F10583086002330870023000C0808
:101C700081008C018C31CE248E312E000F10593012
:101C800086002330870023000C0881008C018C31F2
:101C9000CE248E312E000F105A308600233087005C
:101CA00023000C0881008C018C31CE248E312E0053
:101CB0000F105B3086002330870023000C08810062
:101CC0008C018C31CE248E312E000F105C308600BA
:101CD0002330870023000C0881008C018C31CE2436
:101CE0008E312E000F105D308600233087002300D8
:101CF0000C0881008C018C31CE248E312E000F1007
:101D00005E3086002330870023000C0881008C01A0
:101D10008C31CE248E312E000F105F3086002330A0
:101D2000870023000C0881008C018C31CE248E3179
:101D300080315B282000B9010E1023008C018C310A
:101D4000CE248E312E000F104C30860023308700B9
:101D500023000C08C03F8C018C31CE248E312E0024
:101D60000F104D3086002330870023000C088100BF
:101D70008C018C31CE248E312E000F104E30860017
:101D80002330870023000C0881008C018C31CE2485
:101D90008E312E000F104F30860023308700230035
:101DA0000C0881008C018C31CE248E312E000F1056
:101DB000503086002330870023000C0881008C01FE
:101DC0008C31CE248E312E000F10513086002330FE
:101DD000870023000C0881008C018C31CE248E31C9
:101DE0002E000F10523086002330870023000C088D
:101DF00081008C018C31CE248E312E000F10533097
:101E000086002330870023000C0881008C018C3170
:101E1000CE248E312E000F105430860023308700E0
:101E200023000C0881008C018C31CE248E312E00D1
:101E30000F10553086002330870023000C088100E6
:101E40008C018C31CE248E318E31162E2230200022
:101E5000A4002408A800E82F25302D060319312FEF
:101E6000322F372F2D08803105208F31E82F2000A9
:101E7000A9013F2FFF2F562F562FE82F562F21084D
:101E8000A5002008A400A00A0319A10A24088400C0
:101E9000250885000008AD00003A0319FF2F643AB9
:101EA0000319562F0D3A0319562FE82F28088600DC
:101EB0008701403FAB00413FAC000230A400240842
:101EC000A807AC1F642F652F6F2F0330A4002408D0
:101ED000A904AB09AC09AB0A0319AC0A6F2FAD0119
:101EE000AD0A05302D06031D762F772F792F9F2FF2
:101EF0009F2F2D08A400A501A435A50D00302407AF
:101F000084009030253D8500003FA600013FA700DA
:101F100027082C02031D8E2F26082B020318912F51
:101F2000922F942F9F2F9F2F0130A4002408AD07DC
:101F300005302D06031D9D2F9E2F792F9F2F2908D9
:101F400003390319A42FA52FAA2F2D308031052086
:101F50008F31AA2F20002D08A4002408AA00DC2F0E
:101F60000A30F8000030F9002A08A400A501A435C1
:101F7000A50D0030240784009030253D8500003FEA
:101F8000F000013FF1002C08F3002B08F2008D3126
:101F900060258F317108FB007008FA008D3125250E
:101FA0008F317808303E2000A6002608AD002D08AD
:101FB000803105208F31DC2FFF302000A400240861
:101FC000AA072A0A031DE52FE62FB02FE82FE82FD6
:101FD00020002108A5002008A400A00A0319A10AD6
:101FE00024088400250885000008A6002608AD0006
:101FF0002D08031DFC2FFD2F2C2FFF2FFF2F080076
:10200000013400340A34003464340034E8340334D6
:1020100010342734483445344C344C344F340D3468
:102020000A34003425346434203400340A340D3446
:0220300000347A
:020000040001F9
:0A000E00EC3FFF379F3FFF3FFF3F2D
:00000001FF
