:020000040000FA
:10000000803102288731CC2F062806282300190CBE
:10001000890C0139F0001B081F397004031D1128D9
:1000200012280628132808008F314F278031FA0143
:10003000FB017B08803AF80080307802031D2228FB
:10004000A4307A02031C2528262828285328532860
:100050004C30F8002330F9007A08780786007B08D6
:10006000793D870001088E31E52680314C30F8005B
:100070002330F9007A08780786007B08793D8700ED
:1000800081010130FA070030FB3D7B08803AF8001F
:1000900080307802031D4E28A4307A02031C5128B8
:1000A00052282828532880319B20803108003E00A8
:1000B000B801C301CE01D901E401200091016530EE
:1000C000920098309300940195018C018D018E016E
:1000D0008F01900196019701980199019A012E00D4
:1000E00099120B138B13161255303D008F00AA3056
:1000F0008F000F1010303E00A60017303D00CB00DF
:100100000E30C60014303E009F001530A1000E30A6
:100110003D00C60014303E009F001530A100553050
:100120003D008F00AA308F000F142E0099160B1778
:100130008B178F01080020008F1521002808F1007F
:10014000F2012908F300F4017308F400F3017108C7
:100150007304F60072087404F7007608A43EF600F3
:100160000030773DF7007708F1007108A9007608A4
:10017000F1007108A80020008F1100308E31E526B3
:10018000803124308E31E526803120006F088E3199
:10019000E5268031210029088E31E52680312100B5
:1001A00028088E31E526803120008F158F158F119C
:1001B00000308E31E526803101308E31E5268031E8
:1001C00020006F088E31E526803120308E31E52603
:1001D000803120008F1508002100AC0120000E1096
:1001E000F601F7017708803AF10080307102031DB3
:1001F000FB28A4307602031CFE28FF2801292729AA
:10020000272900308E31F4268031F1004C30F20085
:100210002330F30076087207F4007708733DF50089
:100220007408860075088700710881000130F607A0
:100230000030F73D7708803AF10080307102031DED
:100240002329A4307602031C26292729012920000E
:100250000E144C308600233087000F300105F1006A
:100260000F307106031D3529362940292100AC01C4
:10027000AC0A0130F1007108AB07B301B303502998
:100280002100AB010130F1007108B3073308803A57
:10029000443E031C4C294D295029B30150295029B3
:1002A00097302B02031C5529562965295230F2003C
:1002B0002B30F1000030890B5B29F10B5B29F20B2D
:1002C0005B2900322100AB016529080020008F1155
:1002D00000308E31E526813126308E31E5268131A0
:1002E000210031088E31E526813100308E31E5263E
:1002F00081312000B40034082100A30000308E3189
:10030000E52681312000B40034082100A20000302D
:100310008E31E52681312000B40034082100A70089
:1003200000308E31E52681312000B40034082100F0
:10033000A60000308E31E52681312000B40034085B
:100340002100A50000308E31E52681312000B40067
:1003500034082100A40020008F152100220820006D
:10036000B400B501210023082000B600B70136080B
:10037000B700B60134083604EB0035083704EC004A
:100380007530A0009030A1008331362381312000E8
:100390008F11210027088E31E526813121002608A2
:1003A0008E31E526813121002D088E31E5268131FF
:1003B0002000ED01EE01002A00308E31E52681316A
:1003C0002000B4006D08393E8600870134088100A2
:1003D000A530A0009030A1006D08393E860087014D
:1003E0000108B400B5013408A2003508A300833128
:1003F0003623813101302000ED070030EE3D002A28
:100400006C086E02031D062A6B086D02031C092A84
:100410000A2ADC298F15003200320032003298306F
:100420002000A0009030A1008331362381312000CC
:100430008F1100308E31E526813128308E31E5264E
:10044000813120006F088E31E52681312100250899
:100450008E31E5268131210024088E31E526813157
:1004600020008F158F1100308E31E526813101304B
:100470008E31E526813120006F088E31E5268131ED
:1004800040308E31E526813104308E31E5268131D0
:1004900020008F1508008E3185268231803157204B
:1004A00082318E31A72682318F31152782318E31EC
:1004B000D82682318E319F2682318F31302782318A
:1004C0008E319726823120000F1529302100BB0084
:1004D0009630BA007F30890B6B2ABA0B6B2ABB0BA4
:1004E0006B2A20000E148F148F1529302100BB00B9
:1004F0009630BA007F30890B7B2ABA0B7B2ABB0B64
:100500007B2A20000E100E1415302100BB004B304A
:10051000BA00BE30890B8A2ABA0B8A2ABB0B8A2AF8
:1005200000000C308F31032782319C302000A00066
:100530009030A10083313623823185318C25823180
:100540005F302000A0009030A1008331362382313B
:100550008431252482310A302000A0009030A1008F
:10056000833136238231B42A20000D18B82AB92AE3
:10057000B42ABA2A15302100BB004B30BA00BE3075
:10058000890BC02ABA0BC02ABB0BC02A00008131DC
:10059000662182312100BD01BC01B301B303D02A21
:1005A0008031EC20823121002C08031DD82AD92A61
:1005B000222B3D03031DDD2ADE2A1B2BE02AE02A25
:1005C00020000D18E42AE52AE02AE62A20008F11EF
:1005D00000308E31E526823102308E31E5268231BF
:1005E00008308E31E526823100308E31E5268231A9
:1005F0002100BA003A08BC0020008F1521003C1EE3
:10060000022B032BE62A20008F1100308E31E526C5
:10061000823102308E31E52682310C308E31E52672
:10062000823110308E31E526823120008F15210075
:10063000BD01BD0A1E2BBD01BD0A1E2B8031142039
:100640008231222B21003308803A453E031C292B9E
:100650002A2BD02A2B2B83302000A0009030A10021
:10066000833136238231332B80310228223020001F
:10067000AA002A08B0000D2C253033060319412B9F
:10068000422B472B33088F31032783310D2C200059
:10069000AE015F2B242C7A2B7A2B30088600870141
:1006A0000108AA002A08B3000230AA002A08B007ED
:1006B000592B33088F31032783310D2C7A2B2000DF
:1006C0002108AB002008AA00A00A0319A10A2A08E1
:1006D00084002B0885000008B300003A0319242C7D
:1006E000633A03194D2B073A03197A2B0D3A031974
:1006F0007A2B592B2000300886008701403FB1003B
:10070000413FB2000230AA002A08B007B21F892B6D
:100710008A2B942B0330AA002A08AE04B109B2092F
:10072000B10A0319B20A942BB301B30A0530330698
:10073000031D9B2B9C2B9E2BC42BC42B3308AA0080
:10074000AB01AA35AB0D00302A07840090302B3D59
:100750008500003FAC00013FAD002D083202031DB3
:10076000B32B2C0831020318B62BB72BB92BC42B93
:10077000C42B0130AA002A08B30705303306031D35
:10078000C22BC32B9E2BC42B2E0803390319C92B54
:10079000CA2BCF2B2D308F3103278331CF2B200055
:1007A0003308AA002A08AF00012C0A30F8000030F4
:1007B000F9002F08AA00AB01AA35AB0D00302A07BB
:1007C000840090302B3D8500003FF000013FF10098
:1007D0003208F3003108F2008F31BD2783317108F0
:1007E000FB007008FA008F31822783317808303E91
:1007F0002000AC002C08B30033088F31032783316D
:10080000012CFF302000AA002A08AF072F0A031D81
:100810000A2C0B2CD52B0D2C0D2C20002108AB0005
:100820002008AA00A00A0319A10A2A0884002B089C
:1008300085000008AC002C08B3003308031D212CF0
:10084000222C3C2B242C242C08002000B601B501BE
:10085000292C8F1100308E31E52684312E308E31D7
:10086000E5268431210032088E31E5268431B83006
:100870008E31E526843120008F150B302000B40026
:100880006230890B412CB40B412C000020008F11E9
:1008900000308E31E52684312E308E31E5268431CC
:1008A00021002A088E31E526843100308E31E5267C
:1008B00084312000B4003408B5008F150B302000BF
:1008C000B4006230890B622CB40B622C0000200053
:1008D000351C6B2C6C2C292C6D2C9130A000903089
:1008E000A100833136238431752C20008F11003014
:1008F0008E31E526843101308E31E52684312000A9
:100900006F088E31E526843101308E31E526843141
:1009100020008F150B302000B4006230890B8E2C24
:10092000B40B8E2C0000942C20008F1100308E31DF
:10093000E526843103308E31E526843121003108EB
:100940008E31E526843100308E31E5268431200059
:10095000B40034082100A10020008F1513302100BD
:100960002106031DB42CB52C942C20008F110030CF
:100970008E31E526843101308E31E5268431200028
:100980006F088E31E526843102308E31E5268431C0
:1009900020008F150B302000B4006230890BCE2C64
:1009A000B40BCE2C0000D42C20008F1100308E31DF
:1009B000E526843103308E31E5268431210031086B
:1009C0008E31E526843100308E31E52684312000D9
:1009D000B40034082100A10020008F15143021003C
:1009E0002106031DF42CF52CD42CF62C20008F119D
:1009F00000308E31E526843103308E31E526843196
:100A0000210031088E31E526843100308E31E52613
:100A100084312000B40034082100A10020008F158B
:100A2000163021002106031D162D172DF62C192D29
:100A3000192D20000D181D2D1E2D192D8F11003080
:100A40008E31E526843102308E31E5268431210055
:100A500031088E31E526843100308E31E52684312F
:100A60002000B40034082100A00000308E31E526BB
:100A700084312000B40034082100A10020008F152B
:100A80002100A01D442D452D612D2108031D492D58
:100A90004A2D612D20008F1100308E31E5268431E2
:100AA00002308E31E526843120006F088E31E52634
:100AB000843108308E31E526843120008F15B6014F
:100AC000842D201C642D652D842D17302106031DD7
:100AD0006A2D6B2D842D20008F1100308E31E5267C
:100AE000843102308E31E526843120006F088E314A
:100AF000E526843101308E31E526843120008F15C2
:100B0000B601B60A842D842D200036080319892DDC
:100B10008A2D752C8B2D080020008F1100308E310E
:100B2000E526853100308E31E526853121003208F9
:100B30008E31E526853180308E31E52685312000E5
:100B40008F1529302000B5009630B4007F30890B16
:100B5000A72DB40BA72DB50BA72D20008F110030AA
:100B60008E31E526853100308E31E5268531210034
:100B700032088E31E526853100308E31E52685310B
:100B800020008F150B302000B4006230890BC62D79
:100B9000B40BC62D000020008F1100308E31E526E9
:100BA000853101308E31E5268531210032088E31C4
:100BB000E52685310A308E31E526853100308E31CB
:100BC000E526853100308E31E5268531FE308E31C7
:100BD000E526853120008F150B302000B4006230EF
:100BE000890BF02DB40BF02D000020008F11003088
:100BF0008E31E526853105308E31E526853121009F
:100C000032088E31E5268531FF308E31E52685317B
:100C1000FF308E31E526853100308E31E526853175
:100C200000308E31E526853120008F150B302000F5
:100C3000B4006230890B1A2EB40B1A2E000020006B
:100C40008F1100308E31E526853109308E31E52651
:100C50008531210032088E31E5268531DE308E3136
:100C6000E5268531AD308E31E5268531BE308E31B9
:100C7000E5268531EF308E31E5268531FE308E3127
:100C8000E5268531ED308E31E526853120008F1542
:100C90000B302000B4006230890B4C2EB40B4C2E6C
:100CA000000020008F1100308E31E52685310F3095
:100CB0008E31E5268531210032088E31E5268531D9
:100CC0000A308E31E526853100308E31E5268531BA
:100CD00000308E31E526853102308E31E5268531B2
:100CE00020008F150B302000B4006230890B762E67
:100CF000B40B762E000020008F1100308E31E526D7
:100D0000853118308E31E5268531210032088E314B
:100D1000E526853101308E31E526853120008F159D
:100D20000B302000B4006230890B942EB40B942E4B
:100D3000000020008F1100308E31E52685312E30E5
:100D40008E31E5268531210032088E31E526853148
:100D5000B8308E31E526853120008F150B3020000C
:100D6000B4006230890BB22EB40BB22E000020000A
:100D70008F1100308E31E526853100308E31E52629
:100D8000853120006F088E31E526853101308E31A6
:100D9000E526853120008F150B302000B40062302D
:100DA000890BD02EB40BD02E000020008F11003004
:100DB0008E31E526853104308E31E52685312000DF
:100DC0006F088E31E526853101308E31E52685317B
:100DD000F4308E31E526853120008F150B30200050
:100DE000B4006230890BF22EB40BF22E000020000A
:100DF0008F1100308E31E526853112308E31E52697
:100E0000853120006F088E31E526853105308E3121
:100E1000E5268531B4308E31E526853120008F15E9
:100E20000B302000B4006230890B142FB40B142F48
:100E3000000020008F1100308E31E52685312C30E6
:100E40008E31E526853120006F088E31E52685310B
:100E5000FF308E31E526853120008F150B302000C4
:100E6000B4006230890B322FB40B322F0000200007
:100E70008F1100308E31E52685312D308E31E526FB
:100E8000853120006F088E31E526853100308E31A6
:100E9000E526853100308E31E526853120008F151D
:100EA0000B302000B4006230890B542FB40B542F48
:100EB000000020008F1100308E31E52685312F3063
:100EC0008E31E526853120006F088E31E52685318B
:100ED0000A308E31E526853120008F150B30200039
:100EE000B4006230890B722FB40B722F0000200007
:100EF0000C148F1100308E31E52685310F308E3184
:100F0000E526853121002A088E31E526853100301D
:100F10008E31E52685312000B4003408BC00003055
:100F20008E31E52685312000B4003408BD00003044
:100F30008E31E52685312000B4003408BE00003033
:100F40008E31E52685312000B4003408BF008F15AE
:100F50003C30A0009030A1003C08B400B50134083A
:100F6000A2003508A3003D08B600B7013608A4006A
:100F70003708A5003E08B800B9013808A6003908AE
:100F8000A7003F08BA00BB013A08A8003B08A90027
:100F900083313623853108008E3184268731EF0076
:100FA000B03084008E30850021001200AD001200A8
:100FB000AE001200AF001200B0001200B10012002B
:100FC000B2001200B3001200B4001200B5004C30A1
:100FD000840023308500A430FE000030FF008E31F5
:100FE000CC268731A0308400003085000D30FE0013
:100FF0000030FF008E31CC268731200082314B2A11
:101D08000C34603031008D000630930008008031BB
:101D180004208E3123001B140800803104208E31EA
:101D280023001B150800C0302300990020309A00BA
:101D38002E000F110800803023008F0030309000F3
:101D48002E000F100800283023009A009B014F3006
:101D5800970019139917080018341C3410341434D8
:101D6800083404343C343C34A4340000000000003F
:101D7800000000000000000000000800F1008031B1
:101D880004208E317108230096001B08CB2E080012
:101D98006400800101310130FE020030FF3B7F0802
:101DA8007E04031DCD2E0034083022009F0024300D
:101DB8009E0090309D0044309B009C012E008F12A5
:101DC8000800F000700823009600EA2E2E000F1D70
:101DD800EE2EEF2EEA2E0F1123001608F32E080020
:101DE800F000700823008C00F92E2E000F1CFD2E29
:101DF800FE2EF92E0F1023000C08022F0800F00009
:101E0800052F2E000F1A092F0A2F112F22009E1CB2
:101E18000E2F0F2F052F112F112F700822009A0057
:101E280008008E318B268F312A308E31C2268F31B1
:101E380001308E31C2268F3105308E31C2268F3166
:101E480000308E31C2268F3101308E31C2268F315B
:101E58008E3191268F3108002E0099120B138B13A7
:101E6800161255303D008F00AA308F000F100A302F
:101E7800C90016303E00990017309B0055303D00D0
:101E88008F00AA308F000F142E0099160B178B178E
:101E980016168F01080020008F1100308E31E526BC
:101EA8008F3124308E31E5268F31210031088E3173
:101EB800E5268F3100308E31E5268F31F10071082B
:101EC8002100A90000308E31E5268F31F10071081C
:101ED8002100A80020008F158F158F1121002908D7
:101EE8008E31E5268F31210028088E31E5268F3185
:101EF800210030088E31E5268F31080078087904F2
:101F08000319872F882FB72FFD01FD0A952F013060
:101F1800F835F90D890B8C2F0130FC007C08FD0782
:101F2800952FF91F982F992F8B2F9B2F9B2F79086F
:101F38007B02031DA12F78087A02031CA42FA52F6A
:101F4800AA2F7808FA027908FB3BAA2F0130F93644
:101F5800F80C890BAB2F0130FD02031DB42FB52FF0
:101F68009B2FB72FB72F7B08F9007A08F800BC2FF2
:101F78000800F501F601700871040319C42FC52F74
:101F8800FA2FF701F70AD22F0130F035F10D890B3E
:101F9800C92F0130F4007408F707D22FF11FD52F8D
:101FA800D62FC82FD82FD82F0130F535F60D890B2D
:101FB800D92F71087302031DE32F70087202031CE6
:101FC800E62FE72FED2F7008F2027108F33B751426
:101FD800ED2F0130F136F00C890BEE2F0130F702AE
:101FE800031DF72FF82FD82FFA2FFA2F7608F100B4
:101FF8007508F000FF2F0800013400340A3400345B
:1020080064340034E83403341034273453346F34E0
:1020180063346B3465347434203443347234653437
:102028006134743465346434203461346E34643417
:10203800203443346F346E346E346534633474340E
:1020480069346F346E3420344D346134643465340B
:10205800203461347334203461342034533465348B
:1020680072347634653472340A340A340D340034E8
:1020780053346F34753472346334653420344934DE
:1020880050342034413464346434723465347334E5
:10209800733420343D342034253464342E342534CC
:1020A80064342E34253464342E34253464340A34AC
:1020B8000A340D3400344534543448342034573409
:1020C80049345A34203443346F346E3466346934B6
:1020D800673475347234653464340A340A340D3420
:1020E8000034463472346F346D34203443346C34E5
:1020F800693465346E3474343A34203400344934E5
:102108006D346134673465342034533465346E3447
:1021180074340A340A340D3400344C3469346E345F
:102128006B342034553450340A340A340D340034B6
:10213800533474346134723474340A340A340D34C8
:08214800003425346334003437
:020000040001F9
:0A000E00EC3FFF379F3FFF3FFF3F2D
:00000001FF
