:020000040000FA
:10000000803102288731D62F0C34603031008D00CA
:1000100006309300080020008F152E08F100F20131
:100020002F08F300F4017308F400F301710873045E
:10003000F60072087404F7007608A43EF60000305B
:10004000773DF7007708F1007108AF007608F100FE
:100050007108AE008F1100308A3137228031243090
:100060008A31372280317D088A3137228031200061
:100070002F088A313722803120002E088A3137221A
:10008000803120008F158F158F1100308A31372273
:10009000803101308A31372280317D088A31372220
:1000A000803120308A31372220008F1508000F1050
:1000B000603086002330870023000C0881008C010B
:1000C0008A31242280312E000F10613086002330C7
:1000D000870023000C0881008C018A3124228031A2
:1000E0002E000F10623086002330870023000C089A
:1000F00081008C018A31242280312E000F10633060
:1001000086002330870023000C0881008C018A318F
:10011000242280312E000F106430860023308700A7
:1001200023000C0881008C018A31242280312E00AA
:100130000F10653086002330870023000C088100F3
:100140008C018A31242280312E000F106630860007
:100150002330870023000C0881008C018A3124227F
:1001600080312E000F106730860023308700230077
:100170000C0881008C018A31242280312E000F105E
:10018000683086002330870023000C0881008C0132
:100190008A31242280312E000F10693086002330EE
:1001A000870023000C0881008C018A3124228031D1
:1001B0002E000F106A3086002330870023000C08C1
:1001C00081008C018A31242280312E000F106B3087
:1001D00086002330870023000C0881008C018A31BF
:1001E000242280312E000F106C30860023308700CF
:1001F00023000C0881008C018A31242280312E00DA
:100200000F106D3086002330870023000C0881001A
:100210008C018A31242280312E000F106E3086002E
:100220002330870023000C0881008C018A312422AE
:1002300080312E000F106F3086002330870023009E
:100240000C0881008C018A31242280312E000F108D
:10025000703086002330870023000C0881008C0159
:100260008A31242280312E000F1071308600233015
:10027000870023000C0881008C018A312422803100
:100280002E000F10723086002330870023000C08E8
:1002900081008C018A31242280312E000F107330AE
:1002A00086002330870023000C0881008C018A31EE
:1002B000242280312E000F107430860023308700F6
:1002C00023000C0881008C018A31242280312E0009
:1002D0000F10753086002330870023000C08810042
:1002E0008C018A31242280312E000F107630860056
:1002F0002330870023000C0881008C018A312422DE
:1003000080312E000F1077308600233087002300C5
:100310000C0881008C018A31242280312E000F10BC
:10032000783086002330870023000C0881008C0180
:100330008A31242280312E000F107930860023303C
:10034000870023000C0881008C018A31242280312F
:100350002E000F107A3086002330870023000C080F
:1003600081008C018A31242280312E000F107B30D5
:1003700086002330870023000C0881008C018A311D
:10038000242280312E000F107C308600233087001D
:1003900023000C0881008C018A31242280312E0038
:1003A0000F107D3086002330870023000C08810069
:1003B0008C018A31242280312E000F107E3086007D
:1003C0002330870023000C0881008C018A3124220D
:1003D00080312E000F107F308600233087002300ED
:1003E0000C0881008C018A31242280312E000F10EC
:1003F000803086002330870023000C0881008C01A8
:100400008A31242280312E000F1081308600233063
:10041000870023000C0881008C018A31242280315E
:100420002E000F10823086002330870023000C0836
:1004300081008C018A31242280312E000F108330FC
:1004400086002330870023000C0881008C018A314C
:10045000242280312E000F10843086002330870044
:1004600023000C0881008C018A31242280312E0067
:100470000F10853086002330870023000C08810090
:100480008C018A31242280312E000F1086308600A4
:100490002330870023000C0881008C018A3124223C
:1004A00080312E000F108730860023308700230014
:1004B0000C0881008C018A31242280312E000F101B
:1004C000883086002330870023000C0881008C01CF
:1004D0008A31242280312E000F108930860023308B
:1004E000870023000C0881008C018A31242280318E
:1004F0002E000F108A3086002330870023000C085E
:1005000081008C018A31242280312E000F108B3023
:1005100086002330870023000C0881008C018A317B
:10052000242280312E000F108C308600233087006B
:1005300023000C0881008C018A31242280312E0096
:100540000F108D3086002330870023000C088100B7
:100550008C018A31242280312E000F108E308600CB
:100560002330870023000C0881008C018A3124226B
:1005700080312E000F108F3086002330870023003B
:100580000C0881008C018A31242280312E000F104A
:10059000903086002330870023000C0881008C01F6
:1005A0008A31242280312E000F10913086002330B2
:1005B000870023000C0881008C018A3124228031BD
:1005C0002E000F10923086002330870023000C0885
:1005D00081008C018A31242280312E000F1093304B
:1005E00086002330870023000C0881008C018A31AB
:1005F000242280312E000F10943086002330870093
:1006000023000C0881008C018A31242280312E00C5
:100610000F10953086002330870023000C088100DE
:100620008C018A31242280312E000F1096308600F2
:100630002330870023000C0881008C018A3124229A
:1006400080312E000F109730860023308700230062
:100650000C0881008C018A31242280312E000F1079
:10066000983086002330870023000C0881008C011D
:100670008A31242280312E000F10993086002330D9
:10068000870023000C0881008C018A3124228031EC
:100690002E000F109A3086002330870023000C08AC
:1006A00081008C018A31242280312E000F109B3072
:1006B00086002330870023000C0881008C018A31DA
:1006C000242280312E000F109C30860023308700BA
:1006D00023000C0881008C018A31242280312E00F5
:1006E0000F109D3086002330870023000C08810006
:1006F0008C018A31242280312E000F109E3086001A
:100700002330870023000C0881008C018A312422C9
:1007100080312E000F109F30860023308700230089
:100720000C0881008C018A31242280312E000F10A8
:10073000A03086002330870023000C0881008C0144
:100740008A31242280312E000F10A1308600233000
:10075000870023000C0881008C018A31242280311B
:100760002E000F10A23086002330870023000C08D3
:1007700081008C018A31242280312E000F10A33099
:1007800086002330870023000C0881008C018A3109
:10079000242280312E000F10A430860023308700E1
:1007A00023000C0881008C018A31242280312E0024
:1007B0000F10A53086002330870023000C0881002D
:1007C0008C018A31242280312E000F10A630860041
:1007D0002330870023000C0881008C018A312422F9
:1007E00080312E000F10A7308600233087002300B1
:1007F0000C0881008C018A31242280312E000F10D8
:10080000A83086002330870023000C0881008C016B
:100810008A31242280312E000F10A9308600233027
:10082000870023000C0881008C018A31242280314A
:100830002E000F10AA3086002330870023000C08FA
:1008400081008C018A31242280312E000F10AB30C0
:1008500086002330870023000C0881008C018A3138
:10086000242280312E000F10AC3086002330870008
:1008700023000C0881008C018A31242280312E0053
:100880000F10AD3086002330870023000C08810054
:100890008C018A31242280312E000F10AE30860068
:1008A0002330870023000C0881008C018A31242228
:1008B00080312E000F10AF308600233087002300D8
:1008C0000C0881008C018A31242280312E000F1007
:1008D000B03086002330870023000C0881008C0193
:1008E0008A31242280312E000F10B130860023304F
:1008F000870023000C0881008C018A31242280317A
:100900002E000F10B23086002330870023000C0821
:1009100081008C018A31242280312E000F10B330E7
:1009200086002330870023000C0881008C018A3167
:10093000242280312E000F10B4308600233087002F
:1009400023000C0881008C018A31242280312E0082
:100950000F10B53086002330870023000C0881007B
:100960008C018A31242280312E000F10B63086008F
:100970002330870023000C0881008C018A31242257
:1009800080312E000F10B7308600233087002300FF
:100990000C0881008C018A31242280312E000F1036
:1009A000B83086002330870023000C0881008C01BA
:1009B0008A31242280312E000F10B9308600233076
:1009C000870023000C0881008C018A3124228031A9
:1009D0002E000F10BA3086002330870023000C0849
:1009E00081008C018A31242280312E000F10BB300F
:1009F00086002330870023000C0881008C018A3197
:100A0000242280312E000F10BC3086002330870056
:100A100023000C0881008C018A31242280312E00B1
:100A20000F10BD3086002330870023000C088100A2
:100A30008C018A31242280312E000F10BE308600B6
:100A40002330870023000C0881008C018A31242286
:100A500080312E000F10BF30860023308700230026
:100A60000C0881008C018A31242280312E000F1065
:100A7000C03086002330870023000C0881008C01E1
:100A80008A31242280312E000F10C130860023309D
:100A9000870023000C0881008C018A3124228031D8
:100AA0002E000F10C23086002330870023000C0870
:100AB00081008C018A31242280312E000F10C33036
:100AC00086002330870023000C0881008C018A31C6
:100AD000242280312E000F10C4308600233087007E
:100AE00023000C0881008C018A31242280312E00E1
:100AF0000F10C53086002330870023000C088100CA
:100B00008C018A31242280312E000F10C6308600DD
:100B10002330870023000C0881008C018A312422B5
:100B200080312E000F10C73086002330870023004D
:100B30000C0881008C018A31242280312E000F1094
:100B4000C83086002330870023000C0881008C0108
:100B50008A31242280312E000F10C93086002330C4
:100B6000870023000C0881008C018A312422803107
:100B70002E000F10CA3086002330870023000C0897
:100B800081008C018A31242280312E000F10CB305D
:100B900086002330870023000C0881008C018A31F5
:100BA000242280312E000F10CC30860023308700A5
:100BB00023000C0881008C018A31242280312E0010
:100BC0000F10CD3086002330870023000C088100F1
:100BD0008C018A31242280312E000F10CE30860005
:100BE0002330870023000C0881008C018A312422E5
:100BF00080312E000F10CF30860023308700230075
:100C00000C0881008C018A31242280312E000F10C3
:100C1000D03086002330870023000C0881008C012F
:100C20008A31242280312E000F10D13086002330EB
:100C3000870023000C0881008C018A312422803136
:100C40002E000F10D23086002330870023000C08BE
:100C500081008C018A31242280312E000F10D33084
:100C600086002330870023000C0881008C018A3124
:100C7000242280312E000F10D430860023308700CC
:100C800023000C0881008C018A31242280312E003F
:100C90000F10D53086002330870023000C08810018
:100CA0008C018A31242280312E000F10D63086002C
:100CB0002330870023000C0881008C018A31242214
:100CC00080312E000F10D73086002330870023009C
:100CD0000C0881008C018A31242280312E000F10F3
:100CE000D83086002330870023000C0881008C0157
:100CF0008A31242280312E000F10D9308600233013
:100D0000870023000C0881008C018A312422803165
:100D10002E000F10DA3086002330870023000C08E5
:100D200081008C018A31242280312E000F10DB30AB
:100D300086002330870023000C0881008C018A3153
:100D4000242280312E000F10DC30860023308700F3
:100D500023000C0881008C018A31242280312E006E
:100D60000F10DD3086002330870023000C0881003F
:100D70008C018A31242280312E000F10DE30860053
:100D80002330870023000C0881008C018A31242243
:100D900080312E000F10DF308600233087002300C3
:100DA0000C0881008C018A31242280312E000F1022
:100DB000E03086002330870023000C0881008C017E
:100DC0008A31242280312E000F10E130860023303A
:100DD000870023000C0881008C018A312422803195
:100DE0002E000F10E23086002330870023000C080D
:100DF00081008C018A31242280312E000F10E330D3
:100E000086002330870023000C0881008C018A3182
:100E1000242280312E000F10E4308600233087001A
:100E200023000C0881008C018A31242280312E009D
:100E30000F10E53086002330870023000C08810066
:100E40008C018A31242280312E000F10E63086007A
:100E50002330870023000C0881008C018A31242272
:100E600080312E000F10E7308600233087002300EA
:100E70000C0881008C018A31242280312E000F1051
:100E8000E83086002330870023000C0881008C01A5
:100E90008A31242280312E000F10E9308600233061
:100EA000870023000C0881008C018A3124228031C4
:100EB0002E000F10EA3086002330870023000C0834
:100EC00081008C018A31242280312E000F10EB30FA
:100ED00086002330870023000C0881008C018A31B2
:100EE000242280312E000F10EC3086002330870042
:100EF00023000C0881008C018A31242280312E00CD
:100F00000F10ED3086002330870023000C0881008D
:100F10008C018A31242280312E000F10EE308600A1
:100F20002330870023000C0881008C018A312422A1
:100F300080312E000F10EF30860023308700230011
:100F40000C08810020000E144C30860023308700EE
:100F50000F300105F0000F307006031DBA2FB201EB
:100F6000B20A0130F0007008B107FF30F0007008DD
:100F7000B900C32FB1010130F0007008B9073C304F
:100F800039020318B90197303102031C08005230AE
:100F9000F1002B30F0000030890BCC2FF00BCC2F60
:100FA000F10BCC2F00322000B10108008031042069
:100FB0008731FD002D3084008A3085003330860073
:100FC000003087000030FF000A308A315922873113
:100FD0004C30840023308500A430FE000030FF0038
:100FE0008A314D2287312030840000308500133053
:100FF000FE000030FF008A314D2220008C316D2C24
:1013DE00080008008A31422223001B1408008A31BB
:1013EE00422223001B150800C03023008F0020303E
:1013FE0090002E000F100800C030230099002030FE
:10140E009A002E000F110800803023008F0030301C
:10141E0090002E000F100800F1008A314222710850
:10142E00230096001B080800283023009A009B0119
:10143E004F309700191399170800000000000000A4
:10144E0000000000000000000000080018341C34EA
:10145E0010341434083404343C343C34A434013491
:10146E00F0007008230096002E000F1D3B2A0F116E
:10147E002300160808002300190C890C0139F0000E
:10148E001B081F39700403190800422A64008001EA
:10149E0001310130FE020030FF3B7F087E0403194C
:1014AE0000344E2AFE0012001E000130FE020030F3
:1014BE00FF3B7F087E04031900345A2A08302200AD
:1014CE009F0024309E0090309D0044309B009C0174
:1014DE002E008F1208008931F1218A312A308A318B
:1014EE0013228A3101308A3113228A3105308A3132
:1014FE0013228A3100308A3113228A3101308A3127
:10150E0013228A318931F62108002E0099120B130D
:10151E008B13161255303D008F00AA308F000F101E
:10152E000A30C90016303E00990017309B00553026
:10153E003D008F00AA308F000F142E0099160B1746
:10154E008B1716168F01080020008F1100308A317C
:10155E0037228A3124308A3137228A3120003708E7
:10156E008A3137228A3100308A3137228A31F100AE
:10157E0071082000AF0000308A3137228A31F10025
:10158E0071082000AE008F158F158F112F088A312C
:10159E0037228A3120002E088A3137228A312000E4
:1015AE0036088A3137220800FA018A31AB228A3195
:1015BE00FB01FC017C08803AF80080307802031DA4
:1015CE00EA2AA4307B020318142B4C30F800233087
:1015DE00F9007B08780786007C08793D87000108B2
:1015EE008A3137228A314C30F8002330F9007B08DB
:1015FE00780786007C08793D870081010130FB0762
:10160E000030FC3D7C08803AF80080307802031DE3
:10161E00122BA4307B02031CEC2A80310B20080015
:10162E003E00B801C301CE01D901E40120009101B1
:10163E006530920098309300940195018C018D01D4
:10164E008E018F01900196019701980199019A01DF
:10165E002E0099120B138B13161255303D008F006E
:10166E00AA308F000F1010303E00A60017303D003C
:10167E00CB000E30C60014303E009F001530A10086
:10168E0014303D00C90016303E00A3001730A400F0
:10169E0055303D008F00AA308F000F142E00991682
:1016AE000B178B1716168F0108000F105630860079
:1016BE002330870023000C0881008C018A312422FC
:1016CE008B312E000F1057308600233087002300F9
:1016DE000C0881008C018A3124228B312E000F10D0
:1016EE00583086002330870023000C0881008C01BF
:1016FE008A3124228B312E000F1059308600233070
:10170E00870023000C0881008C018A3124228B3142
:10171E002E000F105A3086002330870023000C084D
:10172E0081008C018A3124228B312E000F105B3008
:10173E0086002330870023000C0881008C018A313B
:10174E0024228B312E000F105C3086002330870050
:10175E0023000C0881008C018A3124228B312E004B
:10176E000F105D3086002330870023000C088100A7
:10177E008C018A3124228B312E000F105E308600B0
:10178E002330870023000C0881008C018A3124222B
:10179E008B312E000F105F30860023308700230020
:1017AE000C0881008C018A3124228B312E0080316D
:1017BE0057282000B2010E1023008C018A312422FA
:1017CE008B312E000F104C30860023308700230003
:1017DE000C08C03F8C018A3124228B312E000F1051
:1017EE004D3086002330870023000C0881008C01C9
:1017FE008A3124228B312E000F104E30860023307A
:10180E00870023000C0881008C018A3124228B3141
:10181E002E000F104F3086002330870023000C0857
:10182E0081008C018A3124228B312E000F10503012
:10183E0086002330870023000C0881008C018A313A
:10184E0024228B312E000F1051308600233087005A
:10185E0023000C0881008C018A3124228B312E004A
:10186E000F10523086002330870023000C088100B1
:10187E008C018A3124228B312E000F1053308600BA
:10188E002330870023000C0881008C018A3124222A
:10189E008B312E000F10543086002330870023002A
:1018AE000C0881008C018A3124228B312E000F10FE
:1018BE00553086002330870023000C0881008C01F0
:1018CE008A3124228B312E008B315C2B8031052006
:1018DE008C318B3117238C318A311B228C318A311A
:1018EE0072228C318931EF218C318A318C228C31EC
:1018FE008A3165228C318A3103228C318A310B2256
:10190E008C3120000F150F140E148F148F152930E3
:10191E002000C2009630C1007F30890B942CC10B81
:10192E00942CC20B942C20000E100E141530200097
:10193E00C2004B30C100BE30890BA32CC10BA32CAF
:10194E00C20BA32C00008D31E2258C318D31182570
:10195E008C3120003C080319B02CC601C5013C0394
:10196E00031DFC2CFF30C1004108B9008B31E02370
:10197E008C3120004603031DF12C0D18C42C8F1141
:10198E0000308A3137228C3102308A3137228C3145
:10199E0008308A3137228C3100308A3137228C312F
:1019AE002000C1004108C5008F15451EC62C8F11A1
:1019BE0000308A3137228C3102308A3137228C3115
:1019CE000C308A3137228C3110308A3137228C31EB
:1019DE0020008F15C601C60A8A31DB228C313B30BE
:1019EE00200039020318B62CBD2C8931FB218C3115
:1019FE00023020003C06031D172D8931F0218C3159
:101A0E002000C301C40121084406031D102D200827
:101A1E004306031DFF2C0130C3070030C43D0A2DC1
:101A2E00172DF20120008F1100308A3137228D31AF
:101A3E0001308A3137228D317D088A3137228D313E
:101A4E0001308A3137228D3120008F150B30F10095
:101A5E006230890B302DF10B302D003220008F11AA
:101A6E0000308A3137228D3103308A3137228D3161
:101A7E00200037088A3137228D3100308A313722E3
:101A8E008D31F10071082000A7008F151330270645
:101A9E00031D352D8F1100308A3137228D310130E3
:101AAE008A3137228D317D088A3137228D310230CD
:101ABE008A3137228D3120008F150B30F1006230C4
:101ACE00890B672DF10B672D003220008F1100302E
:101ADE008A3137228D3103308A3137228D31200001
:101AEE0037088A3137228D3100308A3137228D31D5
:101AFE00F10071082000A7008F1513302706031D73
:101B0E006C2D0D18882D8F1100308A3137228D31B2
:101B1E0002308A3137228D31200037088A31372240
:101B2E008D3100308A3137228D31F100710820005D
:101B3E00A60000308A3137228D31F1007108200065
:101B4E00A7008F15A61DC32D2708031DC32D8F11AA
:101B5E0000308A3137228D3102308A3137228D3171
:101B6E007D088A3137228D3108308A3137228D3106
:101B7E0020008F15F201DE2D261CDE2D17302706D4
:101B8E00031DDE2D8F1100308A3137228D31023048
:101B9E008A3137228D317D088A3137228D310130DD
:101BAE008A3137228D3120008F15F201F20A720828
:101BBE00031D0800192D20008F1100308A313722A5
:101BCE008D3100308A3137228D31200038088A312C
:101BDE0037228D3110308A3137228D3120008F150A
:101BEE000B30F1006230890BFA2DF10BFA2D003219
:101BFE0020008F1100308A3137228D3101308A3129
:101C0E0037228D31200038088A3137228D310A3043
:101C1E008A3137228D3100308A3137228D310030B2
:101C2E008A3137228D31FE308A3137228D312000B4
:101C3E008F150B30F1006230890B232EF10B232E02
:101C4E00003220008F1100308A3137228D3105305D
:101C5E008A3137228D31200038088A3137228D3172
:101C6E00FF308A3137228D31FF308A3137228D3164
:101C7E0000308A3137228D3100308A3137228D3152
:101C8E0020008F150B30F1006230890B4C2EF10BBA
:101C9E004C2E003220008F1100308A3137228D31C8
:101CAE0009308A3137228D31200038088A313722A7
:101CBE008D3100308A3137228D3121308A313722F1
:101CCE008D3174308A3137228D3108308A31372286
:101CDE008D3136308A3137228D3185308A31372237
:101CEE008D3120008F150B30F1006230890B7D2E67
:101CFE00F10B7D2E003220008F1100308A313722F9
:101D0E008D310F308A3137228D31200038088A31DB
:101D1E0037228D310A308A3137228D3100308A31A7
:101D2E0037228D3100308A3137228D3102308A319F
:101D3E0037228D3120008F150B30F1006230890B68
:101D4E00A62EF10BA62E003220008F1100308A3104
:101D5E0037228D3115308A3137228D3120003808E7
:101D6E008A3137228D3140308A3137228D31200031
:101D7E008F150B30F1006230890BC32EF10BC32E81
:101D8E00003220008F1100308A3137228D31183009
:101D9E008A3137228D31200038088A3137228D3131
:101DAE0001308A3137228D3120008F150B30F10032
:101DBE006230890BE02EF10BE02E003220008F11E5
:101DCE0000308A3137228D311B308A3137228D31E6
:101DDE00200038088A3137228D3100308A3137227F
:101DEE008D3120008F150B30F1006230890BFD2EE6
:101DFE00F10BFD2E003220008F1100308A31372278
:101E0E008D312E308A3137228D31200038088A31BB
:101E1E0037228D31B8308A3137228D3120008F151F
:101E2E000B30F1006230890B1A2FF10B1A2F003292
:101E3E0020008F1100308A3137228D3100308A31E7
:101E4E0037228D317D088A3137228D3181308A31AA
:101E5E0037228D3120008F150B30F1006230890B47
:101E6E00362FF10B362F003220008F1100308A31C1
:101E7E0037228D3104308A3137228D317D088A31F7
:101E8E0037228D3127308A3137228D3110308A3109
:101E9E0037228D3120008F150B30F1006230890B07
:101EAE00562FF10B562F003220008F1100308A3141
:101EBE0037228D310C308A3137228D317D088A31AF
:101ECE0037228D310A308A3137228D3100308A31F6
:101EDE0037228D3100308A3137228D3101308A31EF
:101EEE0037228D3120008F150B30F1006230890BB7
:101EFE007E2FF10B7E2F003220008F1100308A31A1
:101F0E0037228D3110308A3137228D317D088A315A
:101F1E0037228D3127308A3137228D3110308A3178
:101F2E0037228D3120008F150B30F1006230890B76
:101F3E009E2FF10B9E2F003220008F1100308A3120
:101F4E0037228D3112308A3137228D317D088A3118
:101F5E0037228D3105308A3137228D31B4308A31B6
:101F6E0037228D3120008F150B30F1006230890B36
:101F7E00BE2FF10BBE2F003220008F1100308A31A0
:101F8E0037228D312D308A3137228D317D088A31BD
:101F9E0037228D3100308A3137228D3100308A312F
:101FAE0037228D3120008F150B30F1006230890BF6
:101FBE00DE2FF10BDE2F003220008F1100308A3120
:101FCE0037228D312F308A3137228D317D088A317B
:101FDE0037228D310A308A3137228D3120008F150C
:101FEE000B30F1006230890BFA2FF10BFA2F003211
:021FFE000800D9
:020000040001F9
:0A000E00EC3FFF379F3FFF3FFF3F2D
:00000001FF
