:020000040000FA
:08000000803102288731DB2F5B
:100C7E00080008003C343C34A43401348631882604
:100C8E0023001B1408008631882623001B1508003C
:100C9E00603031008D0006309300080023008F0174
:100CAE00303090002E000F100800403023008F00CF
:100CBE00203090002E000F100800403023009900C5
:100CCE0020309A002E000F110800F1008631882680
:100CDE007108230096001B080800283023009A0094
:100CEE009B0109309700191399170800F00070083E
:100CFE0023008C002E000F1C812E0F1023000C08D9
:100D0E0008002300190C890C0139F0001B081F394B
:100D1E00700403190800882EF00070082300960056
:100D2E002E000F1D972E0F112300160808000830F5
:100D3E0022009F0024309E0090309D0040309B008A
:100D4E0003309C0008006400800101310130FE0276
:100D5E000030FF3B7F087E0403190034AB2E863132
:100D6E00452686312A3086316C2686310130863111
:100D7E006C268631053086316C2686310030863100
:100D8E006C268631013086316C26863186314A26B4
:100D9E0008002E0099120B138B13161255303D00BE
:100DAE008F00AA308F000F100A30C90016303E0097
:100DBE00990017309B0055303D008F00AA308F00F0
:100DCE000F142E0099160B178B1716168F0108008D
:100DDE0020008F11F301F4017408803AF100803085
:100DEE007102031DFC2EA43073020318112F4C3018
:100DFE00F1002330F2007308710786007408723D0B
:100E0E00870001088631932686310130F3070030C2
:100E1E00F43DF32E20008F15080086314F268731C2
:100E2E0087314B2787318631742687318631B62636
:100E3E00873186313F2687318631D02687318631FC
:100E4E009E26873186316426873186315526873135
:100E5E003E00CA122E008F1220000D168F148F1511
:100E6E000D16873190278731200026030319422F54
:100E7E008631EF2687313B3020002802031C382FA5
:100E8E00863140268731382F3E00B801C301CE018E
:100E9E00D901E40120009101643092009830930052
:100EAE00940195018C018D018E018F0190019601A7
:100EBE009701980199019A012E0099120B138B1329
:100ECE00161255303D008F00AA308F000F101030D3
:100EDE003E00A60017303D00CB001130C600143086
:100EEE003E009F001530A10014303D00C9001630A1
:100EFE003E00A3001730A40055303D008F00AA30ED
:100F0E008F000F142E0099160B178B1716168F01C4
:100F1E0008002000A601F601F7017708803AF100DB
:100F2E0080307102031D9D2FA43076020318BD2F51
:100F3E0020000D12003086317D268731F1004C30B5
:100F4E00F2002330F30076087207F4007708733D41
:100F5E00F50074088600750887007108810020006E
:100F6E000D160130F6070030F73D942F4C308600F9
:100F7E00233087000F300105F1000F307106031D7D
:100F8E00D02F2000A601A60AFF30F1007108A8009C
:100F9E0008000130F10071082000A8073C3028023B
:100FAE00031C0800A8010800863141268731A800DD
:100FBE00863142268731A900863143268731AA0021
:100FCE00863144268731AB004C30840023308500B7
:100FDE00A430FE000030FF008631AA26A001A10138
:100FEE00A201A301A401A501A601A701200087313A
:020FFE00142FAE
:020000040001F9
:0A000E00EC3FFF379F3FFF3FFF3F2D
:00000001FF
