:020000040000FA
:08000000803102288731DC2F5A
:100C6800080008003C343C34A434013486317D2625
:100C780023001B14080086317D2623001B1508005D
:100C8800603031008D0006309300080023008F018A
:100C9800303090002E000F100800403023008F00E5
:100CA800203090002E000F100800403023009900DB
:100CB80020309A002E000F110800F10086317D26A1
:100CC8007108230096001B080800283023009A00AA
:100CD8009B0109309700191399170800F000700854
:100CE80023008C002E000F1C762E0F1023000C08FA
:100CF80008002300190C890C0139F0001B081F3962
:100D08007004031908007D2EF00070082300960077
:100D18002E000F1D8C2E0F11230016080800083016
:100D280022009F0024309E0090309D0040309B00A0
:100D380003309C0008006400800101310130FE028C
:100D48000030FF3B7F087E0403190034A02E863153
:100D58003A2686312A30863161268631013086313D
:100D6800612686310530863161268631003086312C
:100D780061268631013086316126863186313F26EB
:100D880008002E0099120B138B13161255303D00D4
:100D98008F00AA308F000F100A30C90016303E00AD
:100DA800990017309B0055303D008F00AA308F0006
:100DB8000F142E0099160B178B1716168F010800A3
:100DC80020008F11F301F4017408803AF10080309B
:100DD8007102031DF12EA43073020318112F4C3039
:100DE800F1002330F2007308710786007408723D21
:100DF800870001088631882686314C30F10023307F
:100E0800F2007308710786007408723D870081013B
:100E18000130F3070030F43DE82E20008F1508005C
:100E280086314426873187314D27873186316926B7
:100E380087318631AB268731863134268731863132
:100E4800C5268731863193268731863159268731E1
:100E580086314A2687313E00CA122E008F122000A2
:100E68000D168F148F15FF30FC007C08FD008731AC
:100E780092278731200026030319452F8631E4265F
:100E880087313B307D02031C3B2F86313526873165
:100E9800372F3E00B801C301CE01D901E40120007B
:100EA80091016430920098309300940195018C016F
:100EB8008D018E018F01900196019701980199018A
:100EC8009A012E0099120B138B13161255303D0000
:100ED8008F00AA308F000F1010303E00A600173088
:100EE8003D00CB001130C60014303E009F00153085
:100EF800A10014303D00C90016303E00A300173091
:100F0800A40055303D008F00AA308F000F142E002A
:100F180099160B178B1716168F0108002000A601CB
:100F2800F601F7017708803AF10080307102031D5D
:100F38009F2FA43076020318BF2F20000D12003017
:100F4800863172268731F1004C30F2002330F300ED
:100F580076087207F4007708733DF5007408860078
:100F6800750887007108810020000D160130F6070A
:100F78000030F73D962F4C308600233087000F3025
:100F88000105F1000F307106031DD22F2000A601C4
:100F9800A60AFF30F1007108FD0008000130F100D9
:100FA8007108FD073C307D02031C0800FD010800A4
:100FB800863136268731FD00863137268731A700EE
:100FC800863138268731A800863139268731A9002D
:100FD8004C30840023308500A430FE000030FF0030
:100FE80086319F26A001A101A201A301A401A501A8
:080FF800A60120008731142F2F
:020000040001F9
:0A000E00EC3FFF379F3FFF3FFF3F2D
:00000001FF
