:020000040000FA
:08000000803102288731DA2F5C
:1002840008008131902123001B1408008131902142
:1002940023001B150800603031008D0006309300E8
:1002A4000800C03023008F00203090002E000F1073
:1002B4000800C0302300990020309A002E000F114E
:1002C4000800803023008F00303090002E000F1083
:1002D4000800F100813190217108230096001B0869
:1002E4000800283023009A009B014F30970019130F
:1002F4009917080000000000000000000000000042
:10030400000000000800F0007008230096002E0092
:100314000F1D89290F112300160808002300190C4A
:10032400890C0139F0001B081F39700403190800F7
:1003340090291C34103414340434183408340C3424
:100344003C343C34A4340134640080010131013074
:10035400FE020030FF3B7F087E0403190034A72906
:10036400FE0012001E000130FE020030FF3B7F0839
:100374007E0403190034B329083022009F0024307E
:100384009E0090309D0044309B009C012E008F12F3
:1003940008008131432181312A3081316B2181313F
:1003A400013081316B218131053081316B21813103
:1003B400003081316B218131013081316B218131F8
:1003C4008131482108002E0099120B138B13161249
:1003D40055303D008F00AA308F000F100A30C9003D
:1003E40016303E00990017309B0055303D008F00B9
:1003F400AA308F000F142E0099160B178B171616A0
:100404008F01080020008F11003081318521823155
:1004140024308131852182312000380881318521C1
:1004240082310030813185218231F1007108200050
:10043400A9000030813185218231F100710820004A
:10044400A8008F158F158F112908813185218231DC
:10045400200028088131852182312000350881312E
:1004640085210800823104228231FA01FB017B08D4
:10047400803AF80080307802031D422AA4307A02C0
:1004840003186C2A4C30F8002330F9007A087807F6
:1004940086007B08793D87000108813185218231FE
:1004A4004C30F8002330F9007A08780786007B087E
:1004B400793D870081010130FA070030FB3D7B085C
:1004C400803AF80080307802031D6A2AA4307A0248
:1004D400031C442A8231B42208003E00B801C3013F
:1004E400CE01D901E40120009101653092009830D9
:1004F4009300940195018C018D018E018F0190016F
:1005040096019701980199019A012E0099120B13F3
:100514008B13161255303D008F00AA308F000F1038
:1005240010303E00A60017303D00CB000E30C60050
:1005340014303E009F001530A10014303D00C90066
:1005440016303E00A3001730A40055303D008F0044
:10055400AA308F000F142E0099160B178B1716163E
:100564008F01080020008F152808F100F2012908E6
:10057400F300F4017308F400F30171087304F60046
:1005840072087404F7007608A43EF6000030773D44
:10059400F7007708F1007108A9007608F1007108E6
:1005A400A8008F11003081318521823124308131BE
:1005B4008521823120003908813185218231200052
:1005C4002908813185218231200028088131852143
:1005D400823120008F158F158F11003081318521D4
:1005E4008231013081318521823120003908813105
:1005F4008521823120308131852120008F1508002A
:100604002000B201F201F3010E107308803AF000E9
:1006140080307002031D102BA43072020318252BA6
:1006240023008C0181317C2183312E000F104C304A
:1006340086002330870023000C08C03F0130F207F6
:100644000030F33D072B20000E144C30860023307D
:1006540087000F300105F0000F307006031D3D2B9D
:10066400B201B20A0130F0007008B107FF30F000A7
:100674007008BA00462BB1010130F0007008BA07C7
:100684003C303A020318BA0197303102031C0800C7
:100694005230F1002B30F0000030890B4F2BF00B5F
:1006A4004F2BF10B4F2B00322000B101080020002A
:1006B4008F110030813185218331263081318521AC
:1006C4008331200038088131852183310030813124
:1006D40085218331F10071082000AC0000308131A4
:1006E40085218331F10071082000AB000030813195
:1006F40085218331F10071082000B0000030813180
:1007040085218331F10071082000AF000030813170
:1007140085218331F10071082000AE000030813161
:1007240085218331F10071082000AD008F152B085D
:10073400F100F2012C08F300F4017308F400F30152
:1007440071087304F60072087404F7008F113008FE
:1007540081318521833120002F0881318521833126
:1007640020003708813185218331F801F9017708A8
:100774007902031DBF2B760878020318DB2B0030A7
:10078400813185218331F100A830F2002230F30059
:1007940078087207F4007908733DF5007408860040
:1007A40075088700710881000130F8070030F93DB1
:1007B400B92B20008F158F110030813185218331B1
:1007C4002830813185218331200039088131852108
:1007D400833120002E0881318521833120002D08AA
:1007E40081318521833120008F158F1100308131B3
:1007F40085218331013081318521833120003908FD
:100804008131852183314030813185218331043028
:100814008131852120008F15080081314D218431DB
:1008240082316F2284318131732184318131CB2132
:1008340084318131422184318131E5218431813116
:10084400BE21843181315B21843181316321843142
:1008540020000F150F140E148F148F152930FD006E
:100864009630FC007F30890B352CFC0B352CFD0BAE
:10087400352C000020000E100E141530FD004B30F6
:10088400FC00BE30890B442CFC0B442CFD0B442C87
:1008940000328531FB2584318431D2248431200017
:1008A4003D080319512CC401C5013D03031DA52CAA
:1008B400FF30FC007C08BA0083310223843120001D
:1008C4004403031D932C0D18652C8F1100308131C6
:1008D4008521843102308131852184310830813190
:1008E400852184310030813185218431FC007C08EC
:1008F4002000C5008F15451A451D672C8F11003047
:1009040081318521843102308131852184310C305B
:100914008131852184311030813185218431200059
:100924008F15C401C40A45199C2C3C30FC007C087A
:10093400BA009F2C8231342284313B3020003A02A9
:100944000318572C5E2C1530FD004B30FC00BE30D4
:10095400890BAA2CFC0BAA2CFD0BAA2C0032833188
:10096400592384310230FC007C082000BD00813111
:1009740053218431023020003D06031DD12C200078
:10098400C201C30121084306031DCA2C20084206E4
:10099400031DBC2C0130C2070030C33DC42CD12C34
:1009A400F301F20120008F1100308131852184315F
:1009B4002E30813185218431200036088131852112
:1009C4008431B83081318521843120008F150B307A
:1009D400F1006230890BEC2CF10BEC2C003220007E
:1009E4008F1100308131852184312E308131852170
:1009F400843120002A0881318521843100308131FD
:100A040085218431F1007108F20020008F150B302C
:100A1400F1006230890B0C2DF10B0C2D0032721C8D
:100A2400D42C20008F110030813185218431013094
:100A34008131852184312000390881318521843137
:100A4400013081318521843120008F150B30F10074
:100A54006230890B2B2DF10B2B2D003220008F11CE
:100A64000030813185218431033081318521843105
:100A7400200038088131852184310030813185217D
:100A84008431F10071082000A7008F151330270668
:100A9400031D302D8F1100308131852184310130C7
:100AA40081318521843120003908813185218431C7
:100AB400023081318521843120008F150B30F10003
:100AC4006230890B632DF10B632D003220008F11EE
:100AD4000030813185218431033081318521843195
:100AE400200038088131852184310030813185210D
:100AF4008431F10071082000A7008F1514302706F7
:100B0400031D682D8F11003081318521843103301C
:100B14008131852184312000380881318521843157
:100B24000030813185218431F10071082000A70053
:100B34008F1516302706031D842D0D189F2D8F1138
:100B44000030813185218431023081318521843125
:100B5400200038088131852184310030813185219C
:100B64008431F10071082000A60000308131852114
:100B74008431F10071082000A7008F15A61DDB2D1C
:100B84002708031DDB2D8F1100308131852184312D
:100B94000230813185218431200039088131852159
:100BA4008431083081318521843120008F15F3018F
:100BB400F72D261CF72D17302706031DF72D8F114F
:100BC40000308131852184310230813185218431A5
:100BD400200039088131852184310130813185211A
:100BE400843120008F15F301F30A7308031D0800F4
:100BF400132D20008F110030813185218531003083
:100C04008131852185312000360881318521853166
:100C1400803081318521853120008F152930F20003
:100C24009630F1007F30890B152EF10B152EF20B47
:100C3400152E000020008F1100308131852185316F
:100C440000308131852185312000360881318521AC
:100C54008531003081318521853120008F150B309D
:100C6400F1006230890B342EF10B342E0032200057
:100C74008F11003081318521853101308131852109
:100C84008531200036088131852185310A30813152
:100C940085218531003081318521853100308131D4
:100CA40085218531FE3081318521853120008F15E4
:100CB4000B30F1006230890B5D2EF10B5D2E00329A
:100CC40020008F110030813185218531053081313B
:100CD4008521853120003608813185218531FF3019
:100CE400813185218531FF30813185218531003085
:100CF4008131852185310030813185218531200084
:100D04008F150B30F1006230890B862EF10B862E85
:100D1400003220008F110030813185218531093066
:100D24008131852185312000360881318521853145
:100D3400DE30813185218531AD30813185218531A8
:100D4400BE30813185218531EF3081318521853176
:100D5400FE30813185218531ED3081318521853128
:100D640020008F150B30F1006230890BB72EF10B88
:100D7400B72E003220008F1100308131852185315A
:100D84000F3081318521853120003608813185215C
:100D940085310A30813185218531003081318521C9
:100DA40085310030813185218531023081318521C1
:100DB400853120008F150B30F1006230890BE02E55
:100DC400F10BE02E003220008F110030813185219B
:100DD40085311830813185218531200036088131F3
:100DE40085218531013081318521853120008F15A0
:100DF4000B30F1006230890BFD2EF10BFD2E003219
:100E040020008F1100308131852185312E308131D0
:100E14008521853120003608813185218531B8301E
:100E240081318521853120008F150B30F10062302E
:100E3400890B1A2FF10B1A2F003220008F1100306A
:100E44008131852185310030813185218531200032
:100E54003908813185218531013081318521853100
:100E640020008F150B30F1006230890B372FF10B06
:100E7400372F003220008F110030813185218531D8
:100E84000430813185218531200039088131852163
:100E940085310130813185218531F43081318521DD
:100EA400853120008F150B30F1006230890B582FEB
:100EB400F10B582F003220008F1100308131852131
:100EC4008531123081318521853120003908813105
:100ED400852185310530813185218531B4308131D9
:100EE4008521853120008F150B30F1006230890B8C
:100EF400792FF10B792F003220008F1100308131CE
:100F0400852185312C3081318521853120003908B6
:100F1400813185218531FF30813185218531200062
:100F24008F150B30F1006230890B962FF10B962F41
:100F3400003220008F1100308131852185312D3020
:100F44008131852185312000390881318521853120
:100F54000030813185218531003081318521853111
:100F640020008F150B30F1006230890BB72FF10B85
:100F7400B72F003220008F11003081318521853157
:100F84002F30813185218531200039088131852137
:100F940085310A3081318521853120008F150B3050
:100FA400F1006230890BD42FF10BD42F00320800EA
:100FB4009B30840081308500333086000030870008
:100FC4000030FF000B308131B2218731A83084001A
:100FD400223085004830FE000130FF008131A62117
:100FE400873120308400003085001330FE0000304B
:0C0FF400FF008131A621200084310F2C69
:020000040001F9
:0A000E00EC3FFF379F3FFF3FFF3F2D
:00000001FF
